{
  "fileName": "Proxy.sol",
  "contractName": "OldCounter",
  "source": "pragma solidity >=0.4.22 <0.6.0;\n\nimport \"@openzeppelin/contracts-ethereum-package/contracts/GSN/GSNRecipient.sol\";\n\n//import \"./OldCounter.sol\";\ncontract OldCounter  {\n  uint256 public value;\n\n  function increase() public {\n    value += 1;\n  }\n  function decrease() public {\n    value -= 1;\n  }\n}\n\ncontract Proxy is GSNRecipient {\n  OldCounter counter;\n\n  function setCounter(address _counter) public {\n    counter = OldCounter(_counter);\n  }\n\n  function value() public view {\n    counter.value();\n  }\n\n  function increase() public {\n    counter.increase();\n  }\n  function decrease() public {\n    counter.decrease();\n  }\n\n  function acceptRelayedCall(\n    address relay,\n    address from,\n    bytes calldata encodedFunction,\n    uint256 transactionFee,\n    uint256 gasPrice,\n    uint256 gasLimit,\n    uint256 nonce,\n    bytes calldata approvalData,\n    uint256 maxPossibleCharge\n  ) external view returns (uint256, bytes memory) {\n    return _approveRelayedCall();\n  }\n}\n",
  "sourcePath": "contracts/Proxy.sol",
  "abi": [
    {
      "constant": true,
      "inputs": [],
      "name": "value",
      "outputs": [
        {
          "internalType": "uint256",
          "name": "",
          "type": "uint256"
        }
      ],
      "payable": false,
      "stateMutability": "view",
      "type": "function"
    },
    {
      "constant": false,
      "inputs": [],
      "name": "decrease",
      "outputs": [],
      "payable": false,
      "stateMutability": "nonpayable",
      "type": "function"
    },
    {
      "constant": false,
      "inputs": [],
      "name": "increase",
      "outputs": [],
      "payable": false,
      "stateMutability": "nonpayable",
      "type": "function"
    }
  ],
  "bytecode": "0x60806040523480156100115760006000fd5b50610017565b60e0806100256000396000f3fe608060405234801560105760006000fd5b506004361060405760003560e01c80633fa4f245146046578063d732d955146062578063e8927fbc14606a576040565b60006000fd5b604c6072565b6040518082815260200191505060405180910390f35b6068607b565b005b60706093565b005b60006000505481565b6001600060008282825054039250508190909055505b565b6001600060008282825054019250508190909055505b56fea265627a7a72315820774fa07c2a3c7e080357a30cf64af1e559bb4dd486c9b93acbf5447d8ee9792a64736f6c634300050b0032",
  "compiler": {
    "name": "solc",
    "version": "0.5.11+commit.c082d0b4.Emscripten.clang",
    "optimizer": {},
    "evmVersion": "constantinople"
  }
}