{
  "fileName": "Proxy.sol",
  "contractName": "Proxy",
  "source": "pragma solidity >=0.4.22 <0.6.0;\n\nimport \"@openzeppelin/contracts-ethereum-package/contracts/GSN/GSNRecipient.sol\";\n\n//import \"./OldCounter.sol\";\ncontract OldCounter  {\n  uint256 public value;\n\n  function increase() public {\n    value += 1;\n  }\n  function decrease() public {\n    value -= 1;\n  }\n}\n\ncontract Proxy is GSNRecipient {\n  OldCounter counter;\n\n  function setCounter(address _counter) public {\n    counter = OldCounter(_counter);\n  }\n\n  function value() public view {\n    counter.value();\n  }\n\n  function increase() public {\n    counter.increase();\n  }\n  function decrease() public {\n    counter.decrease();\n  }\n\n  function acceptRelayedCall(\n    address relay,\n    address from,\n    bytes calldata encodedFunction,\n    uint256 transactionFee,\n    uint256 gasPrice,\n    uint256 gasLimit,\n    uint256 nonce,\n    bytes calldata approvalData,\n    uint256 maxPossibleCharge\n  ) external view returns (uint256, bytes memory) {\n    return _approveRelayedCall();\n  }\n}\n",
  "sourcePath": "contracts/Proxy.sol",
  "abi": [
    {
      "constant": false,
      "inputs": [
        {
          "internalType": "address",
          "name": "_counter",
          "type": "address"
        }
      ],
      "name": "setCounter",
      "outputs": [],
      "payable": false,
      "stateMutability": "nonpayable",
      "type": "function"
    },
    {
      "constant": true,
      "inputs": [],
      "name": "value",
      "outputs": [],
      "payable": false,
      "stateMutability": "view",
      "type": "function"
    },
    {
      "constant": true,
      "inputs": [],
      "name": "getHubAddr",
      "outputs": [
        {
          "internalType": "address",
          "name": "",
          "type": "address"
        }
      ],
      "payable": false,
      "stateMutability": "view",
      "type": "function"
    },
    {
      "constant": false,
      "inputs": [
        {
          "internalType": "bytes",
          "name": "context",
          "type": "bytes"
        }
      ],
      "name": "preRelayedCall",
      "outputs": [
        {
          "internalType": "bytes32",
          "name": "",
          "type": "bytes32"
        }
      ],
      "payable": false,
      "stateMutability": "nonpayable",
      "type": "function"
    },
    {
      "constant": false,
      "inputs": [],
      "name": "initialize",
      "outputs": [],
      "payable": false,
      "stateMutability": "nonpayable",
      "type": "function"
    },
    {
      "constant": true,
      "inputs": [
        {
          "internalType": "address",
          "name": "relay",
          "type": "address"
        },
        {
          "internalType": "address",
          "name": "from",
          "type": "address"
        },
        {
          "internalType": "bytes",
          "name": "encodedFunction",
          "type": "bytes"
        },
        {
          "internalType": "uint256",
          "name": "transactionFee",
          "type": "uint256"
        },
        {
          "internalType": "uint256",
          "name": "gasPrice",
          "type": "uint256"
        },
        {
          "internalType": "uint256",
          "name": "gasLimit",
          "type": "uint256"
        },
        {
          "internalType": "uint256",
          "name": "nonce",
          "type": "uint256"
        },
        {
          "internalType": "bytes",
          "name": "approvalData",
          "type": "bytes"
        },
        {
          "internalType": "uint256",
          "name": "maxPossibleCharge",
          "type": "uint256"
        }
      ],
      "name": "acceptRelayedCall",
      "outputs": [
        {
          "internalType": "uint256",
          "name": "",
          "type": "uint256"
        },
        {
          "internalType": "bytes",
          "name": "",
          "type": "bytes"
        }
      ],
      "payable": false,
      "stateMutability": "view",
      "type": "function"
    },
    {
      "constant": true,
      "inputs": [],
      "name": "relayHubVersion",
      "outputs": [
        {
          "internalType": "string",
          "name": "",
          "type": "string"
        }
      ],
      "payable": false,
      "stateMutability": "view",
      "type": "function"
    },
    {
      "constant": false,
      "inputs": [],
      "name": "decrease",
      "outputs": [],
      "payable": false,
      "stateMutability": "nonpayable",
      "type": "function"
    },
    {
      "constant": false,
      "inputs": [
        {
          "internalType": "bytes",
          "name": "context",
          "type": "bytes"
        },
        {
          "internalType": "bool",
          "name": "success",
          "type": "bool"
        },
        {
          "internalType": "uint256",
          "name": "actualCharge",
          "type": "uint256"
        },
        {
          "internalType": "bytes32",
          "name": "preRetVal",
          "type": "bytes32"
        }
      ],
      "name": "postRelayedCall",
      "outputs": [],
      "payable": false,
      "stateMutability": "nonpayable",
      "type": "function"
    },
    {
      "constant": false,
      "inputs": [],
      "name": "increase",
      "outputs": [],
      "payable": false,
      "stateMutability": "nonpayable",
      "type": "function"
    },
    {
      "anonymous": false,
      "inputs": [
        {
          "indexed": true,
          "internalType": "address",
          "name": "oldRelayHub",
          "type": "address"
        },
        {
          "indexed": true,
          "internalType": "address",
          "name": "newRelayHub",
          "type": "address"
        }
      ],
      "name": "RelayHubChanged",
      "type": "event"
    }
  ],
  "bytecode": "0x60806040525b5b61000b565b610ed68061001a6000396000f3fe60806040523480156100115760006000fd5b50600436106100a35760003560e01c806383947ea01161006757806383947ea0146101e7578063ad61ccd5146103b4578063d732d95514610438578063e06e0e2214610442578063e8927fbc146104e5576100a3565b806323646eec146100a95780633fa4f245146100ee57806374e861d6146100f857806380274db7146101425780638129fc1c146101dd576100a3565b60006000fd5b6100ec600480360360208110156100c05760006000fd5b81019080803573ffffffffffffffffffffffffffffffffffffffff1690602001909291905050506104ef565b005b6100f6610534565b005b6101006105de565b604051808273ffffffffffffffffffffffffffffffffffffffff1673ffffffffffffffffffffffffffffffffffffffff16815260200191505060405180910390f35b6101bf600480360360208110156101595760006000fd5b81019080803590602001906401000000008111156101775760006000fd5b82018360208201111561018a5760006000fd5b803590602001918460018302840111640100000000831117156101ad5760006000fd5b909192939090919293905050506105f8565b60405180826000191660001916815260200191505060405180910390f35b6101e56106ed565b005b61033160048036036101208110156101ff5760006000fd5b81019080803573ffffffffffffffffffffffffffffffffffffffff169060200190929190803573ffffffffffffffffffffffffffffffffffffffff1690602001909291908035906020019064010000000081111561025d5760006000fd5b8201836020820111156102705760006000fd5b803590602001918460018302840111640100000000831117156102935760006000fd5b9091929390909192939080359060200190929190803590602001909291908035906020019092919080359060200190929190803590602001906401000000008111156102df5760006000fd5b8201836020820111156102f25760006000fd5b803590602001918460018302840111640100000000831117156103155760006000fd5b9091929390909192939080359060200190929190505050610808565b6040518083815260200180602001828103825283818151815260200191508051906020019080838360005b838110156103785780820151818401525b60208101905061035c565b50505050905090810190601f1680156103a55780820380516001836020036101000a031916815260200191505b50935050505060405180910390f35b6103bc610833565b6040518080602001828103825283818151815260200191508051906020019080838360005b838110156103fd5780820151818401525b6020810190506103e1565b50505050905090810190601f16801561042a5780820380516001836020036101000a031916815260200191505b509250505060405180910390f35b61044061087a565b005b6104e3600480360360808110156104595760006000fd5b81019080803590602001906401000000008111156104775760006000fd5b82018360208201111561048a5760006000fd5b803590602001918460018302840111640100000000831117156104ad5760006000fd5b90919293909091929390803515159060200190929190803590602001909291908035600019169060200190929190505050610901565b005b6104ed6109f2565b005b80603360006101000a81548173ffffffffffffffffffffffffffffffffffffffff021916908373ffffffffffffffffffffffffffffffffffffffff1602179055505b50565b603360009054906101000a900473ffffffffffffffffffffffffffffffffffffffff1673ffffffffffffffffffffffffffffffffffffffff16633fa4f2456040518163ffffffff1660e01b815260040160206040518083038186803b15801561059d5760006000fd5b505afa1580156105b2573d600060003e3d6000fd5b505050506040513d60208110156105c95760006000fd5b8101908080519060200190929190505050505b565b60006105ee610a7963ffffffff16565b90506105f5565b90565b60006106086105de63ffffffff16565b73ffffffffffffffffffffffffffffffffffffffff163373ffffffffffffffffffffffffffffffffffffffff1614151561068d576040517f08c379a0000000000000000000000000000000000000000000000000000000008152600401808060200182810382526026815260200180610df76026913960400191505060405180910390fd5b6106e083838080601f016020809104026020016040519081016040528093929190818152602001838380828437600081840152601f19601f82011690508083019250505050505050610aac63ffffffff16565b90506106e7565b92915050565b600060019054906101000a900460ff16806107125750610711610ab463ffffffff16565b5b8061072a5750600060009054906101000a900460ff16155b1515610781576040517f08c379a000000000000000000000000000000000000000000000000000000000815260040180806020018281038252602e815260200180610e48602e913960400191505060405180910390fd5b6000600060019054906101000a900460ff1615905080156107d3576001600060016101000a81548160ff0219169083151502179055506001600060006101000a81548160ff0219169083151502179055505b6107e1610acc63ffffffff16565b5b8015610804576000600060016101000a81548160ff0219169083151502179055505b505b565b6000606061081a610bfc63ffffffff16565b91509150610823565b9b509b9950505050505050505050565b606030506040518060400160405280600581526020017f312e302e300000000000000000000000000000000000000000000000000000008152602001509050610877565b90565b603360009054906101000a900473ffffffffffffffffffffffffffffffffffffffff1673ffffffffffffffffffffffffffffffffffffffff1663d732d9556040518163ffffffff1660e01b8152600401600060405180830381600087803b1580156108e55760006000fd5b505af11580156108fa573d600060003e3d6000fd5b505050505b565b61090f6105de63ffffffff16565b73ffffffffffffffffffffffffffffffffffffffff163373ffffffffffffffffffffffffffffffffffffffff16141515610994576040517f08c379a0000000000000000000000000000000000000000000000000000000008152600401808060200182810382526026815260200180610df76026913960400191505060405180910390fd5b6109ea85858080601f016020809104026020016040519081016040528093929190818152602001838380828437600081840152601f19601f82011690508083019250505050505050848484610c2e63ffffffff16565b5b5050505050565b603360009054906101000a900473ffffffffffffffffffffffffffffffffffffffff1673ffffffffffffffffffffffffffffffffffffffff1663e8927fbc6040518163ffffffff1660e01b8152600401600060405180830381600087803b158015610a5d5760006000fd5b505af1158015610a72573d600060003e3d6000fd5b505050505b565b600060007f06b7792c761dcc05af1761f0315ce8b01ac39c16cc934eb0b2f7a8e71414f26260001b905080549150505b90565b60005b919050565b60006000303b905060008114915050610ac956505b90565b600060019054906101000a900460ff1680610af15750610af0610ab463ffffffff16565b5b80610b095750600060009054906101000a900460ff16155b1515610b60576040517f08c379a000000000000000000000000000000000000000000000000000000000815260040180806020018281038252602e815260200180610e48602e913960400191505060405180910390fd5b6000600060019054906101000a900460ff161590508015610bb2576001600060016101000a81548160ff0219169083151502179055506001600060006101000a81548160ff0219169083151502179055505b610bd573d216153c06e857cd7f72665e0af1d7d82172f494610c3563ffffffff16565b5b8015610bf8576000600060016101000a81548160ff0219169083151502179055505b505b565b60006060610c2160405180602001604052806000815260200150610de163ffffffff16565b91509150610c2a565b9091565b5b50505050565b6000610c45610a7963ffffffff16565b9050600073ffffffffffffffffffffffffffffffffffffffff168273ffffffffffffffffffffffffffffffffffffffff1614151515610ccf576040517f08c379a000000000000000000000000000000000000000000000000000000000815260040180806020018281038252602c815260200180610e76602c913960400191505060405180910390fd5b8073ffffffffffffffffffffffffffffffffffffffff168273ffffffffffffffffffffffffffffffffffffffff1614151515610d56576040517f08c379a000000000000000000000000000000000000000000000000000000000815260040180806020018281038252602b815260200180610e1d602b913960400191505060405180910390fd5b8173ffffffffffffffffffffffffffffffffffffffff168173ffffffffffffffffffffffffffffffffffffffff167fb9f84b8e65164b14439ae3620df0a4d8786d896996c0282b683f9d8c08f046e860405160405180910390a360007f06b7792c761dcc05af1761f0315ce8b01ac39c16cc934eb0b2f7a8e71414f26260001b905082815550505b50565b6000606060008391509150610df1565b91509156fe47534e426f756e636572426173653a2063616c6c6572206973206e6f742052656c617948756247534e436f6e746578743a206e65772052656c6179487562206973207468652063757272656e74206f6e65436f6e747261637420696e7374616e63652068617320616c7265616479206265656e20696e697469616c697a656447534e436f6e746578743a206e65772052656c617948756220697320746865207a65726f2061646472657373a265627a7a7231582029fe71ea538165fc547cb5bc3f090ae6850400e34e8a24f05fea7b6b064029da64736f6c634300050b0032",
  "compiler": {
    "name": "solc",
    "version": "0.5.11+commit.c082d0b4.Emscripten.clang",
    "optimizer": {},
    "evmVersion": "constantinople"
  }
}